{
  "contractName": "course",
  "abi": [
    {
      "constant": true,
      "inputs": [
        {
          "internalType": "uint256",
          "name": "",
          "type": "uint256"
        }
      ],
      "name": "courseIds",
      "outputs": [
        {
          "internalType": "uint256",
          "name": "",
          "type": "uint256"
        }
      ],
      "payable": false,
      "stateMutability": "view",
      "type": "function"
    },
    {
      "constant": false,
      "inputs": [
        {
          "internalType": "string",
          "name": "name",
          "type": "string"
        },
        {
          "internalType": "uint256",
          "name": "department",
          "type": "uint256"
        },
        {
          "internalType": "uint256",
          "name": "pid",
          "type": "uint256"
        },
        {
          "internalType": "uint256",
          "name": "sem",
          "type": "uint256"
        }
      ],
      "name": "registerCourse",
      "outputs": [
        {
          "internalType": "int256",
          "name": "",
          "type": "int256"
        }
      ],
      "payable": false,
      "stateMutability": "nonpayable",
      "type": "function"
    },
    {
      "constant": true,
      "inputs": [
        {
          "internalType": "uint256",
          "name": "mid",
          "type": "uint256"
        }
      ],
      "name": "getCourse",
      "outputs": [
        {
          "internalType": "string",
          "name": "",
          "type": "string"
        },
        {
          "internalType": "uint256",
          "name": "",
          "type": "uint256"
        }
      ],
      "payable": false,
      "stateMutability": "view",
      "type": "function"
    },
    {
      "constant": true,
      "inputs": [
        {
          "internalType": "uint256",
          "name": "mid",
          "type": "uint256"
        }
      ],
      "name": "getname",
      "outputs": [
        {
          "internalType": "string",
          "name": "",
          "type": "string"
        }
      ],
      "payable": false,
      "stateMutability": "view",
      "type": "function"
    },
    {
      "constant": true,
      "inputs": [
        {
          "internalType": "uint256",
          "name": "mid",
          "type": "uint256"
        }
      ],
      "name": "getdepartment",
      "outputs": [
        {
          "internalType": "uint256",
          "name": "",
          "type": "uint256"
        }
      ],
      "payable": false,
      "stateMutability": "view",
      "type": "function"
    }
  ],
  "bytecode": "0x60806040526000805534801561001457600080fd5b5061065e806100246000396000f3fe608060405234801561001057600080fd5b50600436106100575760003560e01c80630202ace11461005c57806308f17db6146101035780630b91e28d14610145578063494e2371146101f3578063a4c77f0f14610235575b600080fd5b6100886004803603602081101561007257600080fd5b8101908080359060200190929190505050610322565b6040518080602001828103825283818151815260200191508051906020019080838360005b838110156100c85780820151818401526020810190506100ad565b50505050905090810190601f1680156100f55780820380516001836020036101000a031916815260200191505b509250505060405180910390f35b61012f6004803603602081101561011957600080fd5b81019080803590602001909291905050506103e0565b6040518082815260200191505060405180910390f35b6101716004803603602081101561015b57600080fd5b8101908080359060200190929190505050610405565b6040518080602001838152602001828103825284818151815260200191508051906020019080838360005b838110156101b757808201518184015260208101905061019c565b50505050905090810190601f1680156101e45780820380516001836020036101000a031916815260200191505b50935050505060405180910390f35b61021f6004803603602081101561020957600080fd5b81019080803590602001909291905050506104ce565b6040518082815260200191505060405180910390f35b61030c6004803603608081101561024b57600080fd5b810190808035906020019064010000000081111561026857600080fd5b82018360208201111561027a57600080fd5b8035906020019184600183028401116401000000008311171561029c57600080fd5b91908080601f016020809104026020016040519081016040528093929190818152602001838380828437600081840152601f19601f8201169050808301925050505050505091929192908035906020019092919080359060200190929190803590602001909291905050506104ef565b6040518082815260200191505060405180910390f35b60606000600160008481526020019081526020016000209050806000018054600181600116156101000203166002900480601f0160208091040260200160405190810160405280929190818152602001828054600181600116156101000203166002900480156103d35780601f106103a8576101008083540402835291602001916103d3565b820191906000526020600020905b8154815290600101906020018083116103b657829003601f168201915b5050505050915050919050565b6000806001600084815260200190815260200160002090508060010154915050919050565b6060600080600160008581526020019081526020016000209050806000018160010154818054600181600116156101000203166002900480601f0160208091040260200160405190810160405280929190818152602001828054600181600116156101000203166002900480156104bd5780601f10610492576101008083540402835291602001916104bd565b820191906000526020600020905b8154815290600101906020018083116104a057829003601f168201915b505050505091509250925050915091565b600281815481106104db57fe5b906000526020600020016000915090505481565b60006001600054016000819055506000600160008054815260200190815260200160002090508581600001908051906020019061052d929190610584565b50848160010181905550838160020181905550828160030181905550600260005490806001815401808255809150509060018203906000526020600020016000909192909190915055506001915050949350505050565b828054600181600116156101000203166002900490600052602060002090601f016020900481019282601f106105c557805160ff19168380011785556105f3565b828001600101855582156105f3579182015b828111156105f25782518255916020019190600101906105d7565b5b5090506106009190610604565b5090565b61062691905b8082111561062257600081600090555060010161060a565b5090565b9056fea265627a7a72315820a4570e13b05f29d0cc02e65d3c4ae15f8acd4273f32adff91b570db18c889a0864736f6c63430005100032",
  "source": "pragma solidity ^0.5.0;\r\n\r\ncontract course\r\n{\r\n\r\n    struct courseInfo \r\n    {\r\n        string name;\r\n        uint256 department;\r\n        uint256 pid;\r\n        uint256 sem;\r\n    }\r\n    uint256 cid=0;\r\n    mapping(uint256 => courseInfo) courses;\r\n    uint256[] public courseIds;\r\n\r\n    function registerCourse(string memory name, uint256 department,uint256 pid,uint256 sem) public  returns(int)   \r\n                             {\r\n                                    cid=cid+1;\r\n                                    courseInfo storage newCourse = courses[cid];\r\n                                    newCourse.name =name;\r\n                                    newCourse.department=department;\r\n                                    newCourse.pid=pid;\r\n                                    newCourse.sem=sem;\r\n                                    courseIds.push(cid);\r\n                                    return 1;\r\n                             }\r\n\r\n    function getCourse(uint256 mid) public view returns (string memory, uint256)\r\n    {\r\n        courseInfo storage c = courses[mid];\r\n        return (c.name,c.department);\r\n    }\r\n    function getname(uint256 mid) public view returns (string memory)\r\n    {\r\n        courseInfo storage c=courses[mid];\r\n        return c.name;\r\n    }\r\n    function getdepartment(uint256 mid) public view returns (uint256)\r\n    {\r\n        courseInfo storage c=courses[mid];\r\n        return c.department;\r\n    }\r\n  \r\n}",
  "sourcePath": "D:\\Proj\\University-Management-System-Using-Ethereum-Blockchain-Network-master\\contracts\\course.sol",
  "compiler": {
    "name": "solc",
    "version": "0.5.16+commit.9c3226ce.Emscripten.clang"
  },
  "schemaVersion": "3.0.23",
  "updatedAt": "2023-04-29T09:53:56.787Z",
  "networkType": "ethereum",
  "devdoc": {
    "methods": {}
  },
  "userdoc": {
    "methods": {}
  }
}