{
  "contractName": "department",
  "abi": [
    {
      "constant": true,
      "inputs": [
        {
          "internalType": "uint256",
          "name": "",
          "type": "uint256"
        }
      ],
      "name": "DepartmentIds",
      "outputs": [
        {
          "internalType": "uint256",
          "name": "",
          "type": "uint256"
        }
      ],
      "payable": false,
      "stateMutability": "view",
      "type": "function"
    },
    {
      "constant": false,
      "inputs": [
        {
          "internalType": "string",
          "name": "name",
          "type": "string"
        },
        {
          "internalType": "string",
          "name": "location",
          "type": "string"
        },
        {
          "internalType": "string",
          "name": "email",
          "type": "string"
        },
        {
          "internalType": "uint256",
          "name": "contact_no",
          "type": "uint256"
        }
      ],
      "name": "registerDepartment",
      "outputs": [
        {
          "internalType": "uint256",
          "name": "",
          "type": "uint256"
        }
      ],
      "payable": false,
      "stateMutability": "nonpayable",
      "type": "function"
    },
    {
      "constant": true,
      "inputs": [],
      "name": "deptCount",
      "outputs": [
        {
          "internalType": "uint256",
          "name": "",
          "type": "uint256"
        }
      ],
      "payable": false,
      "stateMutability": "view",
      "type": "function"
    },
    {
      "constant": true,
      "inputs": [
        {
          "internalType": "uint256",
          "name": "deptid",
          "type": "uint256"
        }
      ],
      "name": "getDepartmentDetails",
      "outputs": [
        {
          "internalType": "string",
          "name": "",
          "type": "string"
        },
        {
          "internalType": "string",
          "name": "",
          "type": "string"
        },
        {
          "internalType": "string",
          "name": "",
          "type": "string"
        },
        {
          "internalType": "uint256",
          "name": "",
          "type": "uint256"
        }
      ],
      "payable": false,
      "stateMutability": "view",
      "type": "function"
    },
    {
      "constant": true,
      "inputs": [
        {
          "internalType": "uint256",
          "name": "deptid",
          "type": "uint256"
        }
      ],
      "name": "getdept",
      "outputs": [
        {
          "internalType": "uint256",
          "name": "",
          "type": "uint256"
        },
        {
          "internalType": "string",
          "name": "",
          "type": "string"
        }
      ],
      "payable": false,
      "stateMutability": "view",
      "type": "function"
    },
    {
      "constant": true,
      "inputs": [
        {
          "internalType": "string",
          "name": "a",
          "type": "string"
        },
        {
          "internalType": "string",
          "name": "b",
          "type": "string"
        }
      ],
      "name": "comparestring",
      "outputs": [
        {
          "internalType": "bool",
          "name": "",
          "type": "bool"
        }
      ],
      "payable": false,
      "stateMutability": "view",
      "type": "function"
    },
    {
      "constant": true,
      "inputs": [
        {
          "internalType": "int256",
          "name": "c",
          "type": "int256"
        }
      ],
      "name": "getid",
      "outputs": [
        {
          "internalType": "uint256",
          "name": "",
          "type": "uint256"
        }
      ],
      "payable": false,
      "stateMutability": "view",
      "type": "function"
    },
    {
      "constant": true,
      "inputs": [
        {
          "internalType": "uint256",
          "name": "mid",
          "type": "uint256"
        }
      ],
      "name": "getname",
      "outputs": [
        {
          "internalType": "uint256",
          "name": "",
          "type": "uint256"
        },
        {
          "internalType": "string",
          "name": "",
          "type": "string"
        },
        {
          "internalType": "string",
          "name": "",
          "type": "string"
        }
      ],
      "payable": false,
      "stateMutability": "view",
      "type": "function"
    },
    {
      "constant": true,
      "inputs": [
        {
          "internalType": "uint256",
          "name": "mid",
          "type": "uint256"
        }
      ],
      "name": "getset",
      "outputs": [
        {
          "internalType": "string",
          "name": "",
          "type": "string"
        }
      ],
      "payable": false,
      "stateMutability": "view",
      "type": "function"
    },
    {
      "constant": true,
      "inputs": [
        {
          "internalType": "string",
          "name": "email",
          "type": "string"
        },
        {
          "internalType": "uint256",
          "name": "contact_no",
          "type": "uint256"
        }
      ],
      "name": "validatedept",
      "outputs": [
        {
          "internalType": "uint256",
          "name": "",
          "type": "uint256"
        }
      ],
      "payable": false,
      "stateMutability": "view",
      "type": "function"
    }
  ],
  "bytecode": "0x60806040526000805534801561001457600080fd5b50611264806100246000396000f3fe608060405234801561001057600080fd5b506004361061009e5760003560e01c8063370d3f9a11610066578063370d3f9a146106655780639d9bd298146106835780639eb820a0146106c5578063f4a605d51461082f578063fb753d4b146108dd5761009e565b80630202ace1146100a357806314c4b015146101bd578063244a108c14610343578063247dd320146103855780633300a1fb1461045e575b600080fd5b6100cf600480360360208110156100b957600080fd5b8101908080359060200190929190505050610984565b604051808481526020018060200180602001838103835285818151815260200191508051906020019080838360005b838110156101195780820151818401526020810190506100fe565b50505050905090810190601f1680156101465780820380516001836020036101000a031916815260200191505b50838103825284818151815260200191508051906020019080838360005b8381101561017f578082015181840152602081019050610164565b50505050905090810190601f1680156101ac5780820380516001836020036101000a031916815260200191505b509550505050505060405180910390f35b6101e9600480360360208110156101d357600080fd5b8101908080359060200190929190505050610af5565b60405180806020018060200180602001858152602001848103845288818151815260200191508051906020019080838360005b8381101561023757808201518184015260208101905061021c565b50505050905090810190601f1680156102645780820380516001836020036101000a031916815260200191505b50848103835287818151815260200191508051906020019080838360005b8381101561029d578082015181840152602081019050610282565b50505050905090810190601f1680156102ca5780820380516001836020036101000a031916815260200191505b50848103825286818151815260200191508051906020019080838360005b838110156103035780820151818401526020810190506102e8565b50505050905090810190601f1680156103305780820380516001836020036101000a031916815260200191505b5097505050505050505060405180910390f35b61036f6004803603602081101561035957600080fd5b8101908080359060200190929190505050610d07565b6040518082815260200191505060405180910390f35b6104486004803603604081101561039b57600080fd5b81019080803590602001906401000000008111156103b857600080fd5b8201836020820111156103ca57600080fd5b803590602001918460018302840111640100000000831117156103ec57600080fd5b91908080601f016020809104026020016040519081016040528093929190818152602001838380828437600081840152601f19601f82011690508083019250505050505050919291929080359060200190929190505050610d28565b6040518082815260200191505060405180910390f35b61064f6004803603608081101561047457600080fd5b810190808035906020019064010000000081111561049157600080fd5b8201836020820111156104a357600080fd5b803590602001918460018302840111640100000000831117156104c557600080fd5b91908080601f016020809104026020016040519081016040528093929190818152602001838380828437600081840152601f19601f8201169050808301925050505050505091929192908035906020019064010000000081111561052857600080fd5b82018360208201111561053a57600080fd5b8035906020019184600183028401116401000000008311171561055c57600080fd5b91908080601f016020809104026020016040519081016040528093929190818152602001838380828437600081840152601f19601f820116905080830192505050505050509192919290803590602001906401000000008111156105bf57600080fd5b8201836020820111156105d157600080fd5b803590602001918460018302840111640100000000831117156105f357600080fd5b91908080601f016020809104026020016040519081016040528093929190818152602001838380828437600081840152601f19601f82011690508083019250505050505050919291929080359060200190929190505050610e47565b6040518082815260200191505060405180910390f35b61066d610efd565b6040518082815260200191505060405180910390f35b6106af6004803603602081101561069957600080fd5b8101908080359060200190929190505050610f06565b6040518082815260200191505060405180910390f35b610815600480360360408110156106db57600080fd5b81019080803590602001906401000000008111156106f857600080fd5b82018360208201111561070a57600080fd5b8035906020019184600183028401116401000000008311171561072c57600080fd5b91908080601f016020809104026020016040519081016040528093929190818152602001838380828437600081840152601f19601f8201169050808301925050505050505091929192908035906020019064010000000081111561078f57600080fd5b8201836020820111156107a157600080fd5b803590602001918460018302840111640100000000831117156107c357600080fd5b91908080601f016020809104026020016040519081016040528093929190818152602001838380828437600081840152601f19601f820116905080830192505050505050509192919290505050610f17565b604051808215151515815260200191505060405180910390f35b61085b6004803603602081101561084557600080fd5b8101908080359060200190929190505050611006565b6040518083815260200180602001828103825283818151815260200191508051906020019080838360005b838110156108a1578082015181840152602081019050610886565b50505050905090810190601f1680156108ce5780820380516001836020036101000a031916815260200191505b50935050505060405180910390f35b610909600480360360208110156108f357600080fd5b81019080803590602001909291905050506110cc565b6040518080602001828103825283818151815260200191508051906020019080838360005b8381101561094957808201518184015260208101905061092e565b50505050905090810190601f1680156109765780820380516001836020036101000a031916815260200191505b509250505060405180910390f35b600060608060006001600086815260200190815260200160002090506000859050808260000183600201818054600181600116156101000203166002900480601f016020809104026020016040519081016040528092919081815260200182805460018160011615610100020316600290048015610a435780601f10610a1857610100808354040283529160200191610a43565b820191906000526020600020905b815481529060010190602001808311610a2657829003601f168201915b50505050509150808054600181600116156101000203166002900480601f016020809104026020016040519081016040528092919081815260200182805460018160011615610100020316600290048015610adf5780601f10610ab457610100808354040283529160200191610adf565b820191906000526020600020905b815481529060010190602001808311610ac257829003601f168201915b5050505050905094509450945050509193909250565b60608060606000806001600087815260200190815260200160002090508060000181600201826001018360030154838054600181600116156101000203166002900480601f016020809104026020016040519081016040528092919081815260200182805460018160011615610100020316600290048015610bb85780601f10610b8d57610100808354040283529160200191610bb8565b820191906000526020600020905b815481529060010190602001808311610b9b57829003601f168201915b50505050509350828054600181600116156101000203166002900480601f016020809104026020016040519081016040528092919081815260200182805460018160011615610100020316600290048015610c545780601f10610c2957610100808354040283529160200191610c54565b820191906000526020600020905b815481529060010190602001808311610c3757829003601f168201915b50505050509250818054600181600116156101000203166002900480601f016020809104026020016040519081016040528092919081815260200182805460018160011615610100020316600290048015610cf05780601f10610cc557610100808354040283529160200191610cf0565b820191906000526020600020905b815481529060010190602001808311610cd357829003601f168201915b505050505091509450945094509450509193509193565b60028181548110610d1457fe5b906000526020600020016000915090505481565b600080600090506000805490506000600190505b818111610e3b5760006001600083815260200190815260200160002090506060816001018054600181600116156101000203166002900480601f016020809104026020016040519081016040528092919081815260200182805460018160011615610100020316600290048015610df45780601f10610dc957610100808354040283529160200191610df4565b820191906000526020600020905b815481529060010190602001808311610dd757829003601f168201915b50505050509050600082600301549050610e0e828a610f17565b8015610e1957508781145b15610e2b576000549550505050610e3b565b5050508080600101915050610d3c565b50819250505092915050565b600060016000540160008190555060006001600080548152602001908152602001600020905085816000019080519060200190610e8592919061118a565b5084816002019080519060200190610e9e92919061118a565b5083816001019080519060200190610eb792919061118a565b5082816003018190555060026000549080600181540180825580915050906001820390600052602060002001600090919290919091505550600054915050949350505050565b60008054905090565b600080600054905080915050919050565b6000816040516020018082805190602001908083835b60208310610f505780518252602082019150602081019050602083039250610f2d565b6001836020036101000a03801982511681845116808217855250505050505090500191505060405160208183030381529060405280519060200120836040516020018082805190602001908083835b60208310610fc25780518252602082019150602081019050602083039250610f9f565b6001836020036101000a0380198251168184511680821785525050505050509050019150506040516020818303038152906040528051906020012014905092915050565b6000606060006001600085815260200190815260200160002090508381600001808054600181600116156101000203166002900480601f0160208091040260200160405190810160405280929190818152602001828054600181600116156101000203166002900480156110bb5780601f10611090576101008083540402835291602001916110bb565b820191906000526020600020905b81548152906001019060200180831161109e57829003601f168201915b505050505090509250925050915091565b60606000600160008481526020019081526020016000209050806000018054600181600116156101000203166002900480601f01602080910402602001604051908101604052809291908181526020018280546001816001161561010002031660029004801561117d5780601f106111525761010080835404028352916020019161117d565b820191906000526020600020905b81548152906001019060200180831161116057829003601f168201915b5050505050915050919050565b828054600181600116156101000203166002900490600052602060002090601f016020900481019282601f106111cb57805160ff19168380011785556111f9565b828001600101855582156111f9579182015b828111156111f85782518255916020019190600101906111dd565b5b509050611206919061120a565b5090565b61122c91905b80821115611228576000816000905550600101611210565b5090565b9056fea265627a7a72315820086214981e89737c168df68121e4869f61f2a20649e280acd6ccf657f79144b664736f6c63430005100032",
  "source": "pragma solidity ^0.5.0;\r\n\r\ncontract department\r\n{\r\n\r\n    struct Departmentinfo \r\n    {\r\n        string Dep_name;\r\n        string email;\r\n        string location;\r\n        uint256 contact_no;\r\n        \r\n    }\r\n    \r\n    \r\n    uint256 id=0;\r\n    mapping(uint256 => Departmentinfo) Departments;\r\n    uint256[] public DepartmentIds;\r\n    \r\n    \r\n    function registerDepartment(string memory name, string memory location,string memory email, uint256 contact_no) public returns(uint256)    \r\n         {\r\n                id=id+1;\r\n                Departmentinfo storage newDept = Departments[id];\r\n                newDept.Dep_name = name;\r\n                newDept.location=location;\r\n                newDept.email = email;\r\n                newDept.contact_no = contact_no;\r\n                DepartmentIds.push(id);\r\n                return id;\r\n         }\r\n         function deptCount() public view returns(uint256)\r\n         {\r\n             return id;\r\n         }\r\n    function getDepartmentDetails(uint256 deptid) public view returns (string memory, string memory,string memory, uint256)\r\n         {\r\n               Departmentinfo storage d = Departments[deptid];\r\n               return(d.Dep_name,d.location,d.email,d.contact_no);\r\n         }\r\n         \r\n    function getdept(uint256 deptid) public view returns (uint256,string memory)\r\n         {\r\n                Departmentinfo storage d = Departments[deptid];\r\n                return(deptid,d.Dep_name);\r\n         }\r\n   \r\n    function comparestring(string memory a , string memory b) public view returns(bool)\r\n        {\r\n           return (keccak256(abi.encodePacked(a))==keccak256(abi.encodePacked(b)));\r\n\r\n        }\r\n        function getid(int c) public view returns(uint256)\r\n        {\r\n            uint256 n=id;\r\n            return n;\r\n        }\r\n        function getname(uint256 mid) public view returns(uint256,string memory,string memory)\r\n        {\r\n            Departmentinfo storage d=Departments[mid];\r\n            uint256 m=mid;\r\n            return(m,d.Dep_name,d.location);\r\n        }\r\n        function getset(uint256 mid) public view returns(string memory)\r\n        {\r\n            Departmentinfo storage d=Departments[mid];\r\n            return d.Dep_name;\r\n        }\r\n    function validatedept(string memory email,uint256 contact_no) public view returns (uint256 )\r\n        {\r\n            uint256 deptid=0;\r\n            uint256 n=id;\r\n            for(uint256 i=1;i<=n;i++)\r\n             {\r\n                Departmentinfo storage d=Departments[i];\r\n                string memory chck_email=d.email;\r\n                uint256 chck_contact_no=d.contact_no;\r\n                if((comparestring(chck_email,email)) && (chck_contact_no==contact_no))\r\n                     {\r\n                        deptid=id;\r\n                         break;\r\n                     }\r\n             }\r\n             \r\n             return deptid;\r\n        }\r\n    \r\n   \r\n        \r\n}",
  "sourcePath": "D:\\Proj\\University-Management-System-Using-Ethereum-Blockchain-Network-master\\contracts\\department.sol",
  "compiler": {
    "name": "solc",
    "version": "0.5.16+commit.9c3226ce.Emscripten.clang"
  },
  "schemaVersion": "3.0.23",
  "updatedAt": "2023-04-29T09:53:51.770Z",
  "networkType": "ethereum",
  "devdoc": {
    "methods": {}
  },
  "userdoc": {
    "methods": {}
  }
}