{
  "contractName": "Professor",
  "abi": [
    {
      "constant": true,
      "inputs": [
        {
          "internalType": "uint256",
          "name": "",
          "type": "uint256"
        }
      ],
      "name": "ProfessorIds",
      "outputs": [
        {
          "internalType": "uint256",
          "name": "",
          "type": "uint256"
        }
      ],
      "payable": false,
      "stateMutability": "view",
      "type": "function"
    },
    {
      "constant": false,
      "inputs": [
        {
          "internalType": "string",
          "name": "name",
          "type": "string"
        },
        {
          "internalType": "string",
          "name": "birthdate",
          "type": "string"
        },
        {
          "internalType": "uint256",
          "name": "department",
          "type": "uint256"
        },
        {
          "internalType": "string",
          "name": "designation",
          "type": "string"
        },
        {
          "internalType": "string",
          "name": "email",
          "type": "string"
        },
        {
          "internalType": "uint256",
          "name": "mobile_no",
          "type": "uint256"
        },
        {
          "internalType": "string",
          "name": "password",
          "type": "string"
        }
      ],
      "name": "registerProfessor",
      "outputs": [
        {
          "internalType": "int256",
          "name": "",
          "type": "int256"
        }
      ],
      "payable": false,
      "stateMutability": "nonpayable",
      "type": "function"
    },
    {
      "constant": true,
      "inputs": [
        {
          "internalType": "uint256",
          "name": "profid",
          "type": "uint256"
        }
      ],
      "name": "getProfessor",
      "outputs": [
        {
          "internalType": "string",
          "name": "",
          "type": "string"
        },
        {
          "internalType": "string",
          "name": "",
          "type": "string"
        },
        {
          "internalType": "uint256",
          "name": "",
          "type": "uint256"
        },
        {
          "internalType": "string",
          "name": "",
          "type": "string"
        },
        {
          "internalType": "string",
          "name": "",
          "type": "string"
        },
        {
          "internalType": "uint256",
          "name": "",
          "type": "uint256"
        }
      ],
      "payable": false,
      "stateMutability": "view",
      "type": "function"
    },
    {
      "constant": true,
      "inputs": [
        {
          "internalType": "uint256",
          "name": "profid",
          "type": "uint256"
        }
      ],
      "name": "getname",
      "outputs": [
        {
          "internalType": "string",
          "name": "",
          "type": "string"
        }
      ],
      "payable": false,
      "stateMutability": "view",
      "type": "function"
    },
    {
      "constant": true,
      "inputs": [
        {
          "internalType": "string",
          "name": "a",
          "type": "string"
        },
        {
          "internalType": "string",
          "name": "b",
          "type": "string"
        }
      ],
      "name": "comparestring",
      "outputs": [
        {
          "internalType": "bool",
          "name": "",
          "type": "bool"
        }
      ],
      "payable": false,
      "stateMutability": "view",
      "type": "function"
    },
    {
      "constant": true,
      "inputs": [
        {
          "internalType": "string",
          "name": "email",
          "type": "string"
        },
        {
          "internalType": "string",
          "name": "password",
          "type": "string"
        }
      ],
      "name": "validatedept",
      "outputs": [
        {
          "internalType": "uint256",
          "name": "",
          "type": "uint256"
        }
      ],
      "payable": false,
      "stateMutability": "view",
      "type": "function"
    },
    {
      "constant": true,
      "inputs": [],
      "name": "ProfessorCount",
      "outputs": [
        {
          "internalType": "uint256",
          "name": "",
          "type": "uint256"
        }
      ],
      "payable": false,
      "stateMutability": "view",
      "type": "function"
    }
  ],
  "bytecode": "0x60806040526000805534801561001457600080fd5b506111b0806100246000396000f3fe608060405234801561001057600080fd5b506004361061007d5760003560e01c80639eb820a01161005b5780639eb820a0146105ce578063a6e9733414610738578063b6dfa81c14610931578063c39eea89146109735761007d565b80630202ace11461008257806377abf7081461012957806399a2c3b61461028f575b600080fd5b6100ae6004803603602081101561009857600080fd5b8101908080359060200190929190505050610991565b6040518080602001828103825283818151815260200191508051906020019080838360005b838110156100ee5780820151818401526020810190506100d3565b50505050905090810190601f16801561011b5780820380516001836020036101000a031916815260200191505b509250505060405180910390f35b6102796004803603604081101561013f57600080fd5b810190808035906020019064010000000081111561015c57600080fd5b82018360208201111561016e57600080fd5b8035906020019184600183028401116401000000008311171561019057600080fd5b91908080601f016020809104026020016040519081016040528093929190818152602001838380828437600081840152601f19601f820116905080830192505050505050509192919290803590602001906401000000008111156101f357600080fd5b82018360208201111561020557600080fd5b8035906020019184600183028401116401000000008311171561022757600080fd5b91908080601f016020809104026020016040519081016040528093929190818152602001838380828437600081840152601f19601f820116905080830192505050505050509192919290505050610a4f565b6040518082815260200191505060405180910390f35b6105b8600480360360e08110156102a557600080fd5b81019080803590602001906401000000008111156102c257600080fd5b8201836020820111156102d457600080fd5b803590602001918460018302840111640100000000831117156102f657600080fd5b91908080601f016020809104026020016040519081016040528093929190818152602001838380828437600081840152601f19601f8201169050808301925050505050505091929192908035906020019064010000000081111561035957600080fd5b82018360208201111561036b57600080fd5b8035906020019184600183028401116401000000008311171561038d57600080fd5b91908080601f016020809104026020016040519081016040528093929190818152602001838380828437600081840152601f19601f82011690508083019250505050505050919291929080359060200190929190803590602001906401000000008111156103fa57600080fd5b82018360208201111561040c57600080fd5b8035906020019184600183028401116401000000008311171561042e57600080fd5b91908080601f016020809104026020016040519081016040528093929190818152602001838380828437600081840152601f19601f8201169050808301925050505050505091929192908035906020019064010000000081111561049157600080fd5b8201836020820111156104a357600080fd5b803590602001918460018302840111640100000000831117156104c557600080fd5b91908080601f016020809104026020016040519081016040528093929190818152602001838380828437600081840152601f19601f820116905080830192505050505050509192919290803590602001909291908035906020019064010000000081111561053257600080fd5b82018360208201111561054457600080fd5b8035906020019184600183028401116401000000008311171561056657600080fd5b91908080601f016020809104026020016040519081016040528093929190818152602001838380828437600081840152601f19601f820116905080830192505050505050509192919290505050610c0a565b6040518082815260200191505060405180910390f35b61071e600480360360408110156105e457600080fd5b810190808035906020019064010000000081111561060157600080fd5b82018360208201111561061357600080fd5b8035906020019184600183028401116401000000008311171561063557600080fd5b91908080601f016020809104026020016040519081016040528093929190818152602001838380828437600081840152601f19601f8201169050808301925050505050505091929192908035906020019064010000000081111561069857600080fd5b8201836020820111156106aa57600080fd5b803590602001918460018302840111640100000000831117156106cc57600080fd5b91908080601f016020809104026020016040519081016040528093929190818152602001838380828437600081840152601f19601f820116905080830192505050505050509192919290505050610cfd565b604051808215151515815260200191505060405180910390f35b6107646004803603602081101561074e57600080fd5b8101908080359060200190929190505050610dec565b604051808060200180602001878152602001806020018060200186815260200185810385528b818151815260200191508051906020019080838360005b838110156107bc5780820151818401526020810190506107a1565b50505050905090810190601f1680156107e95780820380516001836020036101000a031916815260200191505b5085810384528a818151815260200191508051906020019080838360005b83811015610822578082015181840152602081019050610807565b50505050905090810190601f16801561084f5780820380516001836020036101000a031916815260200191505b50858103835288818151815260200191508051906020019080838360005b8381101561088857808201518184015260208101905061086d565b50505050905090810190601f1680156108b55780820380516001836020036101000a031916815260200191505b50858103825287818151815260200191508051906020019080838360005b838110156108ee5780820151818401526020810190506108d3565b50505050905090810190601f16801561091b5780820380516001836020036101000a031916815260200191505b509a505050505050505050505060405180910390f35b61095d6004803603602081101561094757600080fd5b81019080803590602001909291905050506110ac565b6040518082815260200191505060405180910390f35b61097b6110cd565b6040518082815260200191505060405180910390f35b60606000600160008481526020019081526020016000209050806000018054600181600116156101000203166002900480601f016020809104026020016040519081016040528092919081815260200182805460018160011615610100020316600290048015610a425780601f10610a1757610100808354040283529160200191610a42565b820191906000526020600020905b815481529060010190602001808311610a2557829003601f168201915b5050505050915050919050565b600080600090506000805490506000600190505b818111610c015760006001600085815260200190815260200160002090506060816004018054600181600116156101000203166002900480601f016020809104026020016040519081016040528092919081815260200182805460018160011615610100020316600290048015610b1b5780601f10610af057610100808354040283529160200191610b1b565b820191906000526020600020905b815481529060010190602001808311610afe57829003601f168201915b505050505090506060826006018054600181600116156101000203166002900480601f016020809104026020016040519081016040528092919081815260200182805460018160011615610100020316600290048015610bbc5780601f10610b9157610100808354040283529160200191610bbc565b820191906000526020600020905b815481529060010190602001808311610b9f57829003601f168201915b50505050509050610bcd828a610cfd565b8015610bdf5750610bde8189610cfd565b5b15610bf1576000549550505050610c01565b5050508080600101915050610a63565b50505092915050565b600060016000540160008190555060006001600080548152602001908152602001600020905088816000019080519060200190610c489291906110d6565b5087816001019080519060200190610c619291906110d6565b5086816002018190555085816003019080519060200190610c839291906110d6565b5084816004019080519060200190610c9c9291906110d6565b5083816005018190555082816006019080519060200190610cbe9291906110d6565b50600260005490806001815401808255809150509060018203906000526020600020016000909192909190915055506001915050979650505050505050565b6000816040516020018082805190602001908083835b60208310610d365780518252602082019150602081019050602083039250610d13565b6001836020036101000a03801982511681845116808217855250505050505090500191505060405160208183030381529060405280519060200120836040516020018082805190602001908083835b60208310610da85780518252602082019150602081019050602083039250610d85565b6001836020036101000a0380198251168184511680821785525050505050509050019150506040516020818303038152906040528051906020012014905092915050565b60608060006060806000806001600089815260200190815260200160002090508060000181600101826002015483600301846004018560050154858054600181600116156101000203166002900480601f016020809104026020016040519081016040528092919081815260200182805460018160011615610100020316600290048015610ebb5780601f10610e9057610100808354040283529160200191610ebb565b820191906000526020600020905b815481529060010190602001808311610e9e57829003601f168201915b50505050509550848054600181600116156101000203166002900480601f016020809104026020016040519081016040528092919081815260200182805460018160011615610100020316600290048015610f575780601f10610f2c57610100808354040283529160200191610f57565b820191906000526020600020905b815481529060010190602001808311610f3a57829003601f168201915b50505050509450828054600181600116156101000203166002900480601f016020809104026020016040519081016040528092919081815260200182805460018160011615610100020316600290048015610ff35780601f10610fc857610100808354040283529160200191610ff3565b820191906000526020600020905b815481529060010190602001808311610fd657829003601f168201915b50505050509250818054600181600116156101000203166002900480601f01602080910402602001604051908101604052809291908181526020018280546001816001161561010002031660029004801561108f5780601f106110645761010080835404028352916020019161108f565b820191906000526020600020905b81548152906001019060200180831161107257829003601f168201915b505050505091509650965096509650965096505091939550919395565b600281815481106110b957fe5b906000526020600020016000915090505481565b60008054905090565b828054600181600116156101000203166002900490600052602060002090601f016020900481019282601f1061111757805160ff1916838001178555611145565b82800160010185558215611145579182015b82811115611144578251825591602001919060010190611129565b5b5090506111529190611156565b5090565b61117891905b8082111561117457600081600090555060010161115c565b5090565b9056fea265627a7a7231582043d874a3ca2afc8b41679d15ae7f0d1fcb15f29a6da249f1ab3fec918ad58b7164736f6c63430005100032",
  "source": "pragma solidity ^0.5.0;\r\n\r\ncontract Professor\r\n{\r\n    struct Professorinfo\r\n    {\r\n        string name;\r\n        string birthdate;\r\n        uint256 department;\r\n        string designation;\r\n        string email;\r\n        uint256 mobile_no;\r\n        string password;\r\n    }\r\n    \r\n    uint256 id=0;\r\n    mapping(uint256 => Professorinfo) Professors;\r\n    uint256[] public ProfessorIds;\r\n    \r\n     function registerProfessor(string memory name, string memory birthdate, uint256 department, string memory designation,\r\n                              string memory email, uint256 mobile_no, string memory password) public  returns(int) {\r\n            \r\n            \r\n                 id=id+1;\r\n                 Professorinfo storage newStudent = Professors[id];\r\n                 newStudent.name = name;\r\n                 newStudent.birthdate = birthdate;\r\n                 newStudent.department = department;\r\n                 newStudent.designation=designation;\r\n                 newStudent.email = email;\r\n                 newStudent.mobile_no = mobile_no;\r\n                 newStudent.password=password;\r\n                ProfessorIds.push(id);\r\n                 return 1;\r\n            }\r\n             \r\n     function getProfessor(uint256 profid) public view returns(string memory,string memory,uint256,string memory,string memory,uint256)\r\n            {\r\n               Professorinfo  storage p =  Professors[profid];\r\n               return(p.name,p.birthdate,p.department,p.designation,p.email,p.mobile_no);\r\n            }\r\n     \r\n     function getname(uint256 profid) public view returns (string memory)\r\n         {\r\n               Professorinfo  storage p =  Professors[profid];\r\n                return(p.name);\r\n         }\r\n   \r\n    function comparestring(string memory a , string memory b) public view returns(bool)\r\n        {\r\n           return (keccak256(abi.encodePacked(a))==keccak256(abi.encodePacked(b)));\r\n\r\n        }\r\n   \r\n    function validatedept(string memory email,string memory password) public view returns (uint256 )\r\n        {\r\n            uint256 profid=0;\r\n            uint256 n=id;\r\n            for(uint256 i=1;i<=n;i++)\r\n             {\r\n               Professorinfo  storage p =  Professors[profid];\r\n                string memory chck_email=p.email;\r\n                string memory passkey=p.password;\r\n                if((comparestring(chck_email,email)) && (comparestring(passkey,password)))\r\n                     {\r\n                        profid=id;\r\n                         break;\r\n                     }\r\n             }\r\n             \r\n        }\r\n        function ProfessorCount() public view returns(uint256)\r\n        {\r\n            return id;\r\n        }\r\n    \r\n}",
  "sourcePath": "D:\\Proj\\University-Management-System-Using-Ethereum-Blockchain-Network-master\\contracts\\professor.sol",
  "compiler": {
    "name": "solc",
    "version": "0.5.16+commit.9c3226ce.Emscripten.clang"
  },
  "schemaVersion": "3.0.23",
  "updatedAt": "2023-04-29T09:53:53.533Z",
  "networkType": "ethereum",
  "devdoc": {
    "methods": {}
  },
  "userdoc": {
    "methods": {}
  }
}