{
  "contractName": "program",
  "abi": [
    {
      "constant": true,
      "inputs": [
        {
          "internalType": "uint256",
          "name": "",
          "type": "uint256"
        }
      ],
      "name": "programIds",
      "outputs": [
        {
          "internalType": "uint256",
          "name": "",
          "type": "uint256"
        }
      ],
      "payable": false,
      "stateMutability": "view",
      "type": "function"
    },
    {
      "constant": false,
      "inputs": [
        {
          "internalType": "string",
          "name": "name",
          "type": "string"
        },
        {
          "internalType": "uint256",
          "name": "department",
          "type": "uint256"
        },
        {
          "internalType": "uint256",
          "name": "duration",
          "type": "uint256"
        }
      ],
      "name": "registerprogram",
      "outputs": [],
      "payable": false,
      "stateMutability": "nonpayable",
      "type": "function"
    },
    {
      "constant": true,
      "inputs": [
        {
          "internalType": "uint256",
          "name": "mid",
          "type": "uint256"
        }
      ],
      "name": "getProgram",
      "outputs": [
        {
          "internalType": "uint256",
          "name": "",
          "type": "uint256"
        },
        {
          "internalType": "string",
          "name": "",
          "type": "string"
        },
        {
          "internalType": "uint256",
          "name": "",
          "type": "uint256"
        },
        {
          "internalType": "uint256",
          "name": "",
          "type": "uint256"
        }
      ],
      "payable": false,
      "stateMutability": "view",
      "type": "function"
    },
    {
      "constant": true,
      "inputs": [
        {
          "internalType": "uint256",
          "name": "mid",
          "type": "uint256"
        }
      ],
      "name": "getname",
      "outputs": [
        {
          "internalType": "uint256",
          "name": "",
          "type": "uint256"
        },
        {
          "internalType": "string",
          "name": "",
          "type": "string"
        }
      ],
      "payable": false,
      "stateMutability": "view",
      "type": "function"
    },
    {
      "constant": true,
      "inputs": [
        {
          "internalType": "string",
          "name": "a",
          "type": "string"
        },
        {
          "internalType": "string",
          "name": "b",
          "type": "string"
        }
      ],
      "name": "comparestring",
      "outputs": [
        {
          "internalType": "bool",
          "name": "",
          "type": "bool"
        }
      ],
      "payable": false,
      "stateMutability": "view",
      "type": "function"
    },
    {
      "constant": true,
      "inputs": [],
      "name": "getProgramCount",
      "outputs": [
        {
          "internalType": "uint256",
          "name": "",
          "type": "uint256"
        }
      ],
      "payable": false,
      "stateMutability": "view",
      "type": "function"
    }
  ],
  "bytecode": "0x60806040526000805534801561001457600080fd5b5061087f806100246000396000f3fe608060405234801561001057600080fd5b50600436106100625760003560e01c80630202ace11461006757806326844524146101155780636165131714610133578063702ebd61146102025780639eb820a014610244578063c3ecf897146103ae575b600080fd5b6100936004803603602081101561007d57600080fd5b810190808035906020019092919050505061046a565b6040518083815260200180602001828103825283818151815260200191508051906020019080838360005b838110156100d95780820151818401526020810190506100be565b50505050905090810190601f1680156101065780820380516001836020036101000a031916815260200191505b50935050505060405180910390f35b61011d610530565b6040518082815260200191505060405180910390f35b6102006004803603606081101561014957600080fd5b810190808035906020019064010000000081111561016657600080fd5b82018360208201111561017857600080fd5b8035906020019184600183028401116401000000008311171561019a57600080fd5b91908080601f016020809104026020016040519081016040528093929190818152602001838380828437600081840152601f19601f8201169050808301925050505050505091929192908035906020019092919080359060200190929190505050610539565b005b61022e6004803603602081101561021857600080fd5b81019080803590602001909291905050506105bc565b6040518082815260200191505060405180910390f35b6103946004803603604081101561025a57600080fd5b810190808035906020019064010000000081111561027757600080fd5b82018360208201111561028957600080fd5b803590602001918460018302840111640100000000831117156102ab57600080fd5b91908080601f016020809104026020016040519081016040528093929190818152602001838380828437600081840152601f19601f8201169050808301925050505050505091929192908035906020019064010000000081111561030e57600080fd5b82018360208201111561032057600080fd5b8035906020019184600183028401116401000000008311171561034257600080fd5b91908080601f016020809104026020016040519081016040528093929190818152602001838380828437600081840152601f19601f8201169050808301925050505050505091929192905050506105dd565b604051808215151515815260200191505060405180910390f35b6103da600480360360208110156103c457600080fd5b81019080803590602001909291905050506106cc565b6040518085815260200180602001848152602001838152602001828103825285818151815260200191508051906020019080838360005b8381101561042c578082015181840152602081019050610411565b50505050905090810190601f1680156104595780820380516001836020036101000a031916815260200191505b509550505050505060405180910390f35b6000606060006001600085815260200190815260200160002090508381600001808054600181600116156101000203166002900480601f01602080910402602001604051908101604052809291908181526020018280546001816001161561010002031660029004801561051f5780601f106104f45761010080835404028352916020019161051f565b820191906000526020600020905b81548152906001019060200180831161050257829003601f168201915b505050505090509250925050915091565b60008054905090565b600160005401600081905550600060016000805481526020019081526020016000209050838160000190805190602001906105759291906107a5565b508281600101819055508181600201819055506002600054908060018154018082558091505090600182039060005260206000200160009091929091909150555050505050565b600281815481106105c957fe5b906000526020600020016000915090505481565b6000816040516020018082805190602001908083835b6020831061061657805182526020820191506020810190506020830392506105f3565b6001836020036101000a03801982511681845116808217855250505050505090500191505060405160208183030381529060405280519060200120836040516020018082805190602001908083835b602083106106885780518252602082019150602081019050602083039250610665565b6001836020036101000a0380198251168184511680821785525050505050509050019150506040516020818303038152906040528051906020012014905092915050565b600060606000806000600160008781526020019081526020016000209050858160000182600101548360020154828054600181600116156101000203166002900480601f01602080910402602001604051908101604052809291908181526020018280546001816001161561010002031660029004801561078e5780601f106107635761010080835404028352916020019161078e565b820191906000526020600020905b81548152906001019060200180831161077157829003601f168201915b505050505092509450945094509450509193509193565b828054600181600116156101000203166002900490600052602060002090601f016020900481019282601f106107e657805160ff1916838001178555610814565b82800160010185558215610814579182015b828111156108135782518255916020019190600101906107f8565b5b5090506108219190610825565b5090565b61084791905b8082111561084357600081600090555060010161082b565b5090565b9056fea265627a7a72315820409e0db025b432f3596a2a78926d9c40f3188ed406162bfd5f64da898d327bce64736f6c63430005100032",
  "source": "pragma solidity ^0.5.0;\r\n\r\ncontract program\r\n{\r\n\r\n    struct programInfo \r\n    {\r\n        string name;\r\n        uint256 department;\r\n        uint256 duration;\r\n    }\r\n    uint256 pid=0;\r\n    mapping(uint256 => programInfo) programs;\r\n    uint256[] public programIds;\r\n\r\n    function registerprogram(string memory name,  uint256 department,uint256 duration) public     \r\n                             {\r\n                                    pid=pid+1;\r\n                                    programInfo storage newProgram = programs[pid];\r\n                                    newProgram.name = name;\r\n                                    newProgram.department = department;\r\n                                    newProgram.duration=duration;\r\n                                    programIds.push(pid);\r\n        \r\n                             }\r\n\r\n    function getProgram(uint256 mid) public view returns (uint256,string memory, uint256, uint256)\r\n    {\r\n        programInfo storage p = programs[mid];\r\n        return (mid,p.name,p.department,p.duration);\r\n    }\r\n    function getname(uint256 mid) public view returns (uint256,string memory)\r\n    {\r\n        programInfo storage p=programs[mid];\r\n        return (mid,p.name);\r\n    }\r\n\r\n    function comparestring(string memory a , string memory b) public view returns(bool)\r\n    {\r\n           return (keccak256(abi.encodePacked(a))==keccak256(abi.encodePacked(b)));\r\n\r\n    }\r\n    function getProgramCount()public view returns(uint256)\r\n    {\r\n        return pid;\r\n    }\r\n}",
  "sourcePath": "D:\\Proj\\University-Management-System-Using-Ethereum-Blockchain-Network-master\\contracts\\program.sol",
  "compiler": {
    "name": "solc",
    "version": "0.5.16+commit.9c3226ce.Emscripten.clang"
  },
  "schemaVersion": "3.0.23",
  "updatedAt": "2023-04-29T09:53:55.142Z",
  "networkType": "ethereum",
  "devdoc": {
    "methods": {}
  },
  "userdoc": {
    "methods": {}
  }
}