{
  "contractName": "student",
  "abi": [
    {
      "constant": true,
      "inputs": [
        {
          "internalType": "uint256",
          "name": "",
          "type": "uint256"
        }
      ],
      "name": "studentIds",
      "outputs": [
        {
          "internalType": "uint256",
          "name": "",
          "type": "uint256"
        }
      ],
      "payable": false,
      "stateMutability": "view",
      "type": "function"
    },
    {
      "constant": false,
      "inputs": [
        {
          "internalType": "string",
          "name": "name",
          "type": "string"
        },
        {
          "internalType": "string",
          "name": "birthdate",
          "type": "string"
        },
        {
          "internalType": "string",
          "name": "department",
          "type": "string"
        },
        {
          "internalType": "string",
          "name": "location",
          "type": "string"
        },
        {
          "internalType": "string",
          "name": "email",
          "type": "string"
        },
        {
          "internalType": "uint256",
          "name": "mobile_no",
          "type": "uint256"
        },
        {
          "internalType": "string",
          "name": "password",
          "type": "string"
        },
        {
          "internalType": "string",
          "name": "pid",
          "type": "string"
        }
      ],
      "name": "registerStudent",
      "outputs": [
        {
          "internalType": "int256",
          "name": "",
          "type": "int256"
        }
      ],
      "payable": false,
      "stateMutability": "nonpayable",
      "type": "function"
    },
    {
      "constant": true,
      "inputs": [
        {
          "internalType": "uint256",
          "name": "mid",
          "type": "uint256"
        }
      ],
      "name": "getStudent",
      "outputs": [
        {
          "internalType": "string",
          "name": "",
          "type": "string"
        },
        {
          "internalType": "string",
          "name": "",
          "type": "string"
        },
        {
          "internalType": "string",
          "name": "",
          "type": "string"
        },
        {
          "internalType": "string",
          "name": "",
          "type": "string"
        },
        {
          "internalType": "string",
          "name": "",
          "type": "string"
        },
        {
          "internalType": "uint256",
          "name": "",
          "type": "uint256"
        },
        {
          "internalType": "string",
          "name": "",
          "type": "string"
        }
      ],
      "payable": false,
      "stateMutability": "view",
      "type": "function"
    },
    {
      "constant": true,
      "inputs": [],
      "name": "getCount",
      "outputs": [
        {
          "internalType": "uint256",
          "name": "",
          "type": "uint256"
        }
      ],
      "payable": false,
      "stateMutability": "view",
      "type": "function"
    },
    {
      "constant": true,
      "inputs": [
        {
          "internalType": "string",
          "name": "email",
          "type": "string"
        },
        {
          "internalType": "string",
          "name": "password",
          "type": "string"
        }
      ],
      "name": "validateStudent",
      "outputs": [
        {
          "internalType": "uint256",
          "name": "",
          "type": "uint256"
        }
      ],
      "payable": false,
      "stateMutability": "view",
      "type": "function"
    },
    {
      "constant": true,
      "inputs": [
        {
          "internalType": "string",
          "name": "a",
          "type": "string"
        },
        {
          "internalType": "string",
          "name": "b",
          "type": "string"
        }
      ],
      "name": "comparestring",
      "outputs": [
        {
          "internalType": "bool",
          "name": "",
          "type": "bool"
        }
      ],
      "payable": false,
      "stateMutability": "pure",
      "type": "function"
    },
    {
      "constant": true,
      "inputs": [
        {
          "internalType": "uint256",
          "name": "mid",
          "type": "uint256"
        }
      ],
      "name": "getname",
      "outputs": [
        {
          "internalType": "string",
          "name": "",
          "type": "string"
        }
      ],
      "payable": false,
      "stateMutability": "view",
      "type": "function"
    }
  ],
  "bytecode": "0x60806040526000805534801561001457600080fd5b50611515806100246000396000f3fe608060405234801561001057600080fd5b506004361061007d5760003560e01c80639eb820a01161005b5780639eb820a014610435578063a21f15ca1461059f578063a87d942c14610a03578063fa29c14314610a215761007d565b80630202ace114610082578063642f9163146101295780636f28c355146103f3575b600080fd5b6100ae6004803603602081101561009857600080fd5b8101908080359060200190929190505050610b87565b6040518080602001828103825283818151815260200191508051906020019080838360005b838110156100ee5780820151818401526020810190506100d3565b50505050905090810190601f16801561011b5780820380516001836020036101000a031916815260200191505b509250505060405180910390f35b6101556004803603602081101561013f57600080fd5b8101908080359060200190929190505050610c45565b6040518080602001806020018060200180602001806020018881526020018060200187810387528e818151815260200191508051906020019080838360005b838110156101af578082015181840152602081019050610194565b50505050905090810190601f1680156101dc5780820380516001836020036101000a031916815260200191505b5087810386528d818151815260200191508051906020019080838360005b838110156102155780820151818401526020810190506101fa565b50505050905090810190601f1680156102425780820380516001836020036101000a031916815260200191505b5087810385528c818151815260200191508051906020019080838360005b8381101561027b578082015181840152602081019050610260565b50505050905090810190601f1680156102a85780820380516001836020036101000a031916815260200191505b5087810384528b818151815260200191508051906020019080838360005b838110156102e15780820151818401526020810190506102c6565b50505050905090810190601f16801561030e5780820380516001836020036101000a031916815260200191505b5087810383528a818151815260200191508051906020019080838360005b8381101561034757808201518184015260208101905061032c565b50505050905090810190601f1680156103745780820380516001836020036101000a031916815260200191505b50878103825288818151815260200191508051906020019080838360005b838110156103ad578082015181840152602081019050610392565b50505050905090810190601f1680156103da5780820380516001836020036101000a031916815260200191505b509d505050505050505050505050505060405180910390f35b61041f6004803603602081101561040957600080fd5b8101908080359060200190929190505050611047565b6040518082815260200191505060405180910390f35b6105856004803603604081101561044b57600080fd5b810190808035906020019064010000000081111561046857600080fd5b82018360208201111561047a57600080fd5b8035906020019184600183028401116401000000008311171561049c57600080fd5b91908080601f016020809104026020016040519081016040528093929190818152602001838380828437600081840152601f19601f820116905080830192505050505050509192919290803590602001906401000000008111156104ff57600080fd5b82018360208201111561051157600080fd5b8035906020019184600183028401116401000000008311171561053357600080fd5b91908080601f016020809104026020016040519081016040528093929190818152602001838380828437600081840152601f19601f820116905080830192505050505050509192919290505050611068565b604051808215151515815260200191505060405180910390f35b6109ed60048036036101008110156105b657600080fd5b81019080803590602001906401000000008111156105d357600080fd5b8201836020820111156105e557600080fd5b8035906020019184600183028401116401000000008311171561060757600080fd5b91908080601f016020809104026020016040519081016040528093929190818152602001838380828437600081840152601f19601f8201169050808301925050505050505091929192908035906020019064010000000081111561066a57600080fd5b82018360208201111561067c57600080fd5b8035906020019184600183028401116401000000008311171561069e57600080fd5b91908080601f016020809104026020016040519081016040528093929190818152602001838380828437600081840152601f19601f8201169050808301925050505050505091929192908035906020019064010000000081111561070157600080fd5b82018360208201111561071357600080fd5b8035906020019184600183028401116401000000008311171561073557600080fd5b91908080601f016020809104026020016040519081016040528093929190818152602001838380828437600081840152601f19601f8201169050808301925050505050505091929192908035906020019064010000000081111561079857600080fd5b8201836020820111156107aa57600080fd5b803590602001918460018302840111640100000000831117156107cc57600080fd5b91908080601f016020809104026020016040519081016040528093929190818152602001838380828437600081840152601f19601f8201169050808301925050505050505091929192908035906020019064010000000081111561082f57600080fd5b82018360208201111561084157600080fd5b8035906020019184600183028401116401000000008311171561086357600080fd5b91908080601f016020809104026020016040519081016040528093929190818152602001838380828437600081840152601f19601f82011690508083019250505050505050919291929080359060200190929190803590602001906401000000008111156108d057600080fd5b8201836020820111156108e257600080fd5b8035906020019184600183028401116401000000008311171561090457600080fd5b91908080601f016020809104026020016040519081016040528093929190818152602001838380828437600081840152601f19601f8201169050808301925050505050505091929192908035906020019064010000000081111561096757600080fd5b82018360208201111561097957600080fd5b8035906020019184600183028401116401000000008311171561099b57600080fd5b91908080601f016020809104026020016040519081016040528093929190818152602001838380828437600081840152601f19601f820116905080830192505050505050509192919290505050611157565b6040518082815260200191505060405180910390f35b610a0b611274565b6040518082815260200191505060405180910390f35b610b7160048036036040811015610a3757600080fd5b8101908080359060200190640100000000811115610a5457600080fd5b820183602082011115610a6657600080fd5b80359060200191846001830284011164010000000083111715610a8857600080fd5b91908080601f016020809104026020016040519081016040528093929190818152602001838380828437600081840152601f19601f82011690508083019250505050505050919291929080359060200190640100000000811115610aeb57600080fd5b820183602082011115610afd57600080fd5b80359060200191846001830284011164010000000083111715610b1f57600080fd5b91908080601f016020809104026020016040519081016040528093929190818152602001838380828437600081840152601f19601f82011690508083019250505050505050919291929050505061127d565b6040518082815260200191505060405180910390f35b60606000600160008481526020019081526020016000209050806000018054600181600116156101000203166002900480601f016020809104026020016040519081016040528092919081815260200182805460018160011615610100020316600290048015610c385780601f10610c0d57610100808354040283529160200191610c38565b820191906000526020600020905b815481529060010190602001808311610c1b57829003601f168201915b5050505050915050919050565b6060806060806060600060606000600160008a815260200190815260200160002090508060000181600101826002018360030184600401856005015486600701868054600181600116156101000203166002900480601f016020809104026020016040519081016040528092919081815260200182805460018160011615610100020316600290048015610d1a5780601f10610cef57610100808354040283529160200191610d1a565b820191906000526020600020905b815481529060010190602001808311610cfd57829003601f168201915b50505050509650858054600181600116156101000203166002900480601f016020809104026020016040519081016040528092919081815260200182805460018160011615610100020316600290048015610db65780601f10610d8b57610100808354040283529160200191610db6565b820191906000526020600020905b815481529060010190602001808311610d9957829003601f168201915b50505050509550848054600181600116156101000203166002900480601f016020809104026020016040519081016040528092919081815260200182805460018160011615610100020316600290048015610e525780601f10610e2757610100808354040283529160200191610e52565b820191906000526020600020905b815481529060010190602001808311610e3557829003601f168201915b50505050509450838054600181600116156101000203166002900480601f016020809104026020016040519081016040528092919081815260200182805460018160011615610100020316600290048015610eee5780601f10610ec357610100808354040283529160200191610eee565b820191906000526020600020905b815481529060010190602001808311610ed157829003601f168201915b50505050509350828054600181600116156101000203166002900480601f016020809104026020016040519081016040528092919081815260200182805460018160011615610100020316600290048015610f8a5780601f10610f5f57610100808354040283529160200191610f8a565b820191906000526020600020905b815481529060010190602001808311610f6d57829003601f168201915b50505050509250808054600181600116156101000203166002900480601f0160208091040260200160405190810160405280929190818152602001828054600181600116156101000203166002900480156110265780601f10610ffb57610100808354040283529160200191611026565b820191906000526020600020905b81548152906001019060200180831161100957829003601f168201915b50505050509050975097509750975097509750975050919395979092949650565b6002818154811061105457fe5b906000526020600020016000915090505481565b6000816040516020018082805190602001908083835b602083106110a1578051825260208201915060208101905060208303925061107e565b6001836020036101000a03801982511681845116808217855250505050505090500191505060405160208183030381529060405280519060200120836040516020018082805190602001908083835b6020831061111357805182526020820191506020810190506020830392506110f0565b6001836020036101000a0380198251168184511680821785525050505050509050019150506040516020818303038152906040528051906020012014905092915050565b60006001600054016000819055506000600160008054815260200190815260200160002090508981600001908051906020019061119592919061143b565b50888160010190805190602001906111ae92919061143b565b50878160020190805190602001906111c792919061143b565b50868160030190805190602001906111e092919061143b565b50858160040190805190602001906111f992919061143b565b508481600501819055508381600601908051906020019061121b92919061143b565b508281600701908051906020019061123492919061143b565b5060026000549080600181540180825580915050906001820390600052602060002001600090919290919091505550600191505098975050505050505050565b60008054905090565b600080600090506000805490506000600190505b81811161142f5760006001600083815260200190815260200160002090506060816004018054600181600116156101000203166002900480601f0160208091040260200160405190810160405280929190818152602001828054600181600116156101000203166002900480156113495780601f1061131e57610100808354040283529160200191611349565b820191906000526020600020905b81548152906001019060200180831161132c57829003601f168201915b505050505090506060826006018054600181600116156101000203166002900480601f0160208091040260200160405190810160405280929190818152602001828054600181600116156101000203166002900480156113ea5780601f106113bf576101008083540402835291602001916113ea565b820191906000526020600020905b8154815290600101906020018083116113cd57829003601f168201915b505050505090506113fb828a611068565b801561140d575061140c8189611068565b5b1561141f57600054955050505061142f565b5050508080600101915050611291565b50819250505092915050565b828054600181600116156101000203166002900490600052602060002090601f016020900481019282601f1061147c57805160ff19168380011785556114aa565b828001600101855582156114aa579182015b828111156114a957825182559160200191906001019061148e565b5b5090506114b791906114bb565b5090565b6114dd91905b808211156114d95760008160009055506001016114c1565b5090565b9056fea265627a7a72315820ca92609bc073e9ec8385d792fed36923bf7b4c541f731c795e65c777e15e836b64736f6c63430005100032",
  "source": "pragma solidity ^0.5.0;\r\n\r\ncontract student{\r\n\r\nstruct studentInfo {\r\n    string name;\r\n    string birthdate;\r\n    string department;\r\n    string location;\r\n    string email;\r\n    uint256 mobile_no;\r\n    string password;\r\n    string pid;\r\n}\r\nuint256 id=0;\r\nmapping(uint256 => studentInfo) students;\r\nuint256[] public studentIds;\r\n\r\n    function registerStudent(string memory name, string memory birthdate, string memory department, \r\n                             string memory location, string memory email, uint256 mobile_no, string memory password,string memory pid) public  returns(int) {\r\n            \r\n            \r\n                 id=id+1;\r\n                 studentInfo storage newStudent = students[id];\r\n                 newStudent.name = name;\r\n                 newStudent.birthdate = birthdate;\r\n                 newStudent.department = department;\r\n                 newStudent.location = location;\r\n                 newStudent.email = email;\r\n                 newStudent.mobile_no = mobile_no;\r\n                 newStudent.password=password;\r\n                 newStudent.pid=pid;\r\n                 studentIds.push(id);\r\n                 return 1;\r\n            }\r\n            \r\n            \r\n        \r\n    function getStudent(uint256 mid) public view returns (string memory, string memory, string memory, \r\n                                                    string memory, string memory, uint256,string memory){\r\n        studentInfo storage s = students[mid];\r\n        return (s.name,s.birthdate,s.department,s.location,s.email,s.mobile_no,s.pid);\r\n    }\r\n    function getCount() public view returns (uint256)\r\n    {\r\n        return id;\r\n    }\r\n    function validateStudent(string memory email, string memory password) public view returns (uint256 )\r\n    {\r\n        uint256 mid=0;\r\n        uint256 n=id;\r\n        for(uint256 i=1;i<=n;i++)\r\n        {\r\n            studentInfo storage s=students[i];\r\n            string memory chck_email=s.email;\r\n            string memory passkey=s.password;\r\n            if((comparestring(chck_email,email)) && (comparestring(passkey,password)))\r\n            {\r\n                mid=id;\r\n                break;\r\n            }\r\n        }\r\n        return mid;\r\n    }\r\n    function comparestring(string memory a , string memory b) public pure returns(bool)\r\n    {\r\n           return (keccak256(abi.encodePacked(a))==keccak256(abi.encodePacked(b)));\r\n\r\n    }\r\n    function getname(uint256 mid) public view returns(string memory)\r\n    {\r\n            studentInfo storage s = students[mid];\r\n            return s.name;\r\n    }\r\n}\r\n    \r\n",
  "sourcePath": "D:\\Proj\\University-Management-System-Using-Ethereum-Blockchain-Network-master\\contracts\\student.sol",
  "compiler": {
    "name": "solc",
    "version": "0.5.16+commit.9c3226ce.Emscripten.clang"
  },
  "schemaVersion": "3.0.23",
  "updatedAt": "2023-04-29T09:53:49.818Z",
  "networkType": "ethereum",
  "devdoc": {
    "methods": {}
  },
  "userdoc": {
    "methods": {}
  }
}